{
  "abi": [
    {
      "inputs": [],
      "stateMutability": "nonpayable",
      "type": "constructor"
    },
    {
      "inputs": [
        {
          "internalType": "address",
          "name": "sender",
          "type": "address"
        },
        {
          "internalType": "uint256",
          "name": "balance",
          "type": "uint256"
        },
        {
          "internalType": "uint256",
          "name": "needed",
          "type": "uint256"
        },
        {
          "internalType": "uint256",
          "name": "tokenId",
          "type": "uint256"
        }
      ],
      "name": "ERC1155InsufficientBalance",
      "type": "error"
    },
    {
      "inputs": [
        {
          "internalType": "address",
          "name": "approver",
          "type": "address"
        }
      ],
      "name": "ERC1155InvalidApprover",
      "type": "error"
    },
    {
      "inputs": [
        {
          "internalType": "uint256",
          "name": "idsLength",
          "type": "uint256"
        },
        {
          "internalType": "uint256",
          "name": "valuesLength",
          "type": "uint256"
        }
      ],
      "name": "ERC1155InvalidArrayLength",
      "type": "error"
    },
    {
      "inputs": [
        {
          "internalType": "address",
          "name": "operator",
          "type": "address"
        }
      ],
      "name": "ERC1155InvalidOperator",
      "type": "error"
    },
    {
      "inputs": [
        {
          "internalType": "address",
          "name": "receiver",
          "type": "address"
        }
      ],
      "name": "ERC1155InvalidReceiver",
      "type": "error"
    },
    {
      "inputs": [
        {
          "internalType": "address",
          "name": "sender",
          "type": "address"
        }
      ],
      "name": "ERC1155InvalidSender",
      "type": "error"
    },
    {
      "inputs": [
        {
          "internalType": "address",
          "name": "operator",
          "type": "address"
        },
        {
          "internalType": "address",
          "name": "owner",
          "type": "address"
        }
      ],
      "name": "ERC1155MissingApprovalForAll",
      "type": "error"
    },
    {
      "anonymous": false,
      "inputs": [
        {
          "indexed": true,
          "internalType": "address",
          "name": "account",
          "type": "address"
        },
        {
          "indexed": true,
          "internalType": "address",
          "name": "operator",
          "type": "address"
        },
        {
          "indexed": false,
          "internalType": "bool",
          "name": "approved",
          "type": "bool"
        }
      ],
      "name": "ApprovalForAll",
      "type": "event"
    },
    {
      "anonymous": false,
      "inputs": [
        {
          "indexed": true,
          "internalType": "address",
          "name": "operator",
          "type": "address"
        },
        {
          "indexed": true,
          "internalType": "address",
          "name": "from",
          "type": "address"
        },
        {
          "indexed": true,
          "internalType": "address",
          "name": "to",
          "type": "address"
        },
        {
          "indexed": false,
          "internalType": "uint256[]",
          "name": "ids",
          "type": "uint256[]"
        },
        {
          "indexed": false,
          "internalType": "uint256[]",
          "name": "values",
          "type": "uint256[]"
        }
      ],
      "name": "TransferBatch",
      "type": "event"
    },
    {
      "anonymous": false,
      "inputs": [
        {
          "indexed": true,
          "internalType": "address",
          "name": "operator",
          "type": "address"
        },
        {
          "indexed": true,
          "internalType": "address",
          "name": "from",
          "type": "address"
        },
        {
          "indexed": true,
          "internalType": "address",
          "name": "to",
          "type": "address"
        },
        {
          "indexed": false,
          "internalType": "uint256",
          "name": "id",
          "type": "uint256"
        },
        {
          "indexed": false,
          "internalType": "uint256",
          "name": "value",
          "type": "uint256"
        }
      ],
      "name": "TransferSingle",
      "type": "event"
    },
    {
      "anonymous": false,
      "inputs": [
        {
          "indexed": false,
          "internalType": "string",
          "name": "value",
          "type": "string"
        },
        {
          "indexed": true,
          "internalType": "uint256",
          "name": "id",
          "type": "uint256"
        }
      ],
      "name": "URI",
      "type": "event"
    },
    {
      "inputs": [
        {
          "internalType": "address",
          "name": "account",
          "type": "address"
        },
        {
          "internalType": "uint256",
          "name": "id",
          "type": "uint256"
        }
      ],
      "name": "balanceOf",
      "outputs": [
        {
          "internalType": "uint256",
          "name": "",
          "type": "uint256"
        }
      ],
      "stateMutability": "view",
      "type": "function"
    },
    {
      "inputs": [
        {
          "internalType": "address[]",
          "name": "accounts",
          "type": "address[]"
        },
        {
          "internalType": "uint256[]",
          "name": "ids",
          "type": "uint256[]"
        }
      ],
      "name": "balanceOfBatch",
      "outputs": [
        {
          "internalType": "uint256[]",
          "name": "",
          "type": "uint256[]"
        }
      ],
      "stateMutability": "view",
      "type": "function"
    },
    {
      "inputs": [
        {
          "internalType": "address",
          "name": "account",
          "type": "address"
        },
        {
          "internalType": "address",
          "name": "operator",
          "type": "address"
        }
      ],
      "name": "isApprovedForAll",
      "outputs": [
        {
          "internalType": "bool",
          "name": "",
          "type": "bool"
        }
      ],
      "stateMutability": "view",
      "type": "function"
    },
    {
      "inputs": [
        {
          "internalType": "address",
          "name": "account",
          "type": "address"
        },
        {
          "internalType": "uint256",
          "name": "id",
          "type": "uint256"
        },
        {
          "internalType": "uint256",
          "name": "amount",
          "type": "uint256"
        },
        {
          "internalType": "bytes",
          "name": "data",
          "type": "bytes"
        }
      ],
      "name": "mint",
      "outputs": [],
      "stateMutability": "nonpayable",
      "type": "function"
    },
    {
      "inputs": [
        {
          "internalType": "address",
          "name": "to",
          "type": "address"
        },
        {
          "internalType": "uint256[]",
          "name": "ids",
          "type": "uint256[]"
        },
        {
          "internalType": "uint256[]",
          "name": "amounts",
          "type": "uint256[]"
        },
        {
          "internalType": "bytes",
          "name": "data",
          "type": "bytes"
        }
      ],
      "name": "mintBatch",
      "outputs": [],
      "stateMutability": "nonpayable",
      "type": "function"
    },
    {
      "inputs": [
        {
          "internalType": "address",
          "name": "from",
          "type": "address"
        },
        {
          "internalType": "address",
          "name": "to",
          "type": "address"
        },
        {
          "internalType": "uint256[]",
          "name": "ids",
          "type": "uint256[]"
        },
        {
          "internalType": "uint256[]",
          "name": "values",
          "type": "uint256[]"
        },
        {
          "internalType": "bytes",
          "name": "data",
          "type": "bytes"
        }
      ],
      "name": "safeBatchTransferFrom",
      "outputs": [],
      "stateMutability": "nonpayable",
      "type": "function"
    },
    {
      "inputs": [
        {
          "internalType": "address",
          "name": "from",
          "type": "address"
        },
        {
          "internalType": "address",
          "name": "to",
          "type": "address"
        },
        {
          "internalType": "uint256",
          "name": "id",
          "type": "uint256"
        },
        {
          "internalType": "uint256",
          "name": "value",
          "type": "uint256"
        },
        {
          "internalType": "bytes",
          "name": "data",
          "type": "bytes"
        }
      ],
      "name": "safeTransferFrom",
      "outputs": [],
      "stateMutability": "nonpayable",
      "type": "function"
    },
    {
      "inputs": [
        {
          "internalType": "address",
          "name": "operator",
          "type": "address"
        },
        {
          "internalType": "bool",
          "name": "approved",
          "type": "bool"
        }
      ],
      "name": "setApprovalForAll",
      "outputs": [],
      "stateMutability": "nonpayable",
      "type": "function"
    },
    {
      "inputs": [
        {
          "internalType": "string",
          "name": "newuri",
          "type": "string"
        }
      ],
      "name": "setURI",
      "outputs": [],
      "stateMutability": "nonpayable",
      "type": "function"
    },
    {
      "inputs": [
        {
          "internalType": "bytes4",
          "name": "interfaceId",
          "type": "bytes4"
        }
      ],
      "name": "supportsInterface",
      "outputs": [
        {
          "internalType": "bool",
          "name": "",
          "type": "bool"
        }
      ],
      "stateMutability": "view",
      "type": "function"
    },
    {
      "inputs": [
        {
          "internalType": "uint256",
          "name": "",
          "type": "uint256"
        }
      ],
      "name": "uri",
      "outputs": [
        {
          "internalType": "string",
          "name": "",
          "type": "string"
        }
      ],
      "stateMutability": "view",
      "type": "function"
    }
  ],
  "bytecode": {
    "object": "0x60806040523480156200001157600080fd5b50604051806080016040528060428152602001620016166042913962000037816200003e565b50620001c1565b60026200004c8282620000f5565b5050565b634e487b7160e01b600052604160045260246000fd5b600181811c908216806200007b57607f821691505b6020821081036200009c57634e487b7160e01b600052602260045260246000fd5b50919050565b601f821115620000f057600081815260208120601f850160051c81016020861015620000cb5750805b601f850160051c820191505b81811015620000ec57828155600101620000d7565b5050505b505050565b81516001600160401b0381111562000111576200011162000050565b620001298162000122845462000066565b84620000a2565b602080601f831160018114620001615760008415620001485750858301515b600019600386901b1c1916600185901b178555620000ec565b600085815260208120601f198616915b82811015620001925788860151825594840194600190910190840162000171565b5085821015620001b15787850151600019600388901b60f8161c191681555b5050505050600190811b01905550565b61144580620001d16000396000f3fe608060405234801561001057600080fd5b50600436106100a85760003560e01c80632eb2c2d6116100715780632eb2c2d61461013e5780634e1273f414610151578063731133e914610171578063a22cb46514610184578063e985e9c514610197578063f242432a146101aa57600080fd5b8062fdd58e146100ad57806301ffc9a7146100d357806302fe5305146100f65780630e89341c1461010b5780631f7fdffa1461012b575b600080fd5b6100c06100bb366004610b95565b6101bd565b6040519081526020015b60405180910390f35b6100e66100e1366004610bd5565b6101e5565b60405190151581526020016100ca565b610109610104366004610c98565b610235565b005b61011e610119366004610ce9565b610241565b6040516100ca9190610d48565b610109610139366004610e0a565b6102d5565b61010961014c366004610ea3565b6102e7565b61016461015f366004610f4d565b610353565b6040516100ca9190611048565b61010961017f36600461105b565b610428565b6101096101923660046110b0565b610434565b6100e66101a53660046110ec565b610443565b6101096101b836600461111f565b610471565b6000818152602081815260408083206001600160a01b03861684529091529020545b92915050565b60006001600160e01b03198216636cdb3d1360e11b148061021657506001600160e01b031982166303a24d0760e21b145b806101df57506301ffc9a760e01b6001600160e01b03198316146101df565b61023e816104d0565b50565b60606002805461025090611184565b80601f016020809104026020016040519081016040528092919081815260200182805461027c90611184565b80156102c95780601f1061029e576101008083540402835291602001916102c9565b820191906000526020600020905b8154815290600101906020018083116102ac57829003601f168201915b50505050509050919050565b6102e1848484846104dc565b50505050565b336001600160a01b038616811480159061030857506103068682610443565b155b1561033e5760405163711bec9160e11b81526001600160a01b038083166004830152871660248201526044015b60405180910390fd5b61034b8686868686610514565b505050505050565b606081518351146103845781518351604051635b05999160e01b815260048101929092526024820152604401610335565b6000835167ffffffffffffffff8111156103a0576103a0610bf9565b6040519080825280602002602001820160405280156103c9578160200160208202803683370190505b50905060005b8451811015610420576020808202860101516103f3906020808402870101516101bd565b828281518110610405576104056111be565b6020908102919091010152610419816111ea565b90506103cf565b509392505050565b6102e18484848461057b565b61043f3383836105d8565b5050565b6001600160a01b03918216600090815260016020908152604080832093909416825291909152205460ff1690565b336001600160a01b038616811480159061049257506104908682610443565b155b156104c35760405163711bec9160e11b81526001600160a01b03808316600483015287166024820152604401610335565b61034b868686868661066e565b600261043f828261124e565b6001600160a01b03841661050657604051632bfa23e760e11b815260006004820152602401610335565b6102e16000858585856106fc565b6001600160a01b03841661053e57604051632bfa23e760e11b815260006004820152602401610335565b6001600160a01b03851661056757604051626a0d4560e21b815260006004820152602401610335565b61057485858585856106fc565b5050505050565b6001600160a01b0384166105a557604051632bfa23e760e11b815260006004820152602401610335565b6040805160018082526020820186905281830190815260608201859052608082019092529061034b6000878484876106fc565b6001600160a01b0382166106015760405162ced3e160e81b815260006004820152602401610335565b6001600160a01b03838116600081815260016020908152604080832094871680845294825291829020805460ff191686151590811790915591519182527f17307eab39ab6107e8899845ad3d59bd9653f200f220920489ca2b5937696c31910160405180910390a3505050565b6001600160a01b03841661069857604051632bfa23e760e11b815260006004820152602401610335565b6001600160a01b0385166106c157604051626a0d4560e21b815260006004820152602401610335565b604080516001808252602082018690528183019081526060820185905260808201909252906106f387878484876106fc565b50505050505050565b6107088585858561074f565b6001600160a01b038416156105745782513390600103610741576020848101519084015161073a83898985858961096c565b505061034b565b61034b818787878787610a90565b805182511461077e5781518151604051635b05999160e01b815260048101929092526024820152604401610335565b3360005b835181101561088d576020818102858101820151908501909101516001600160a01b03881615610835576000828152602081815260408083206001600160a01b038c1684529091529020548181101561080e576040516303dee4c560e01b81526001600160a01b038a166004820152602481018290526044810183905260648101849052608401610335565b6000838152602081815260408083206001600160a01b038d16845290915290209082900390555b6001600160a01b0387161561087a576000828152602081815260408083206001600160a01b038b1684529091528120805483929061087490849061130e565b90915550505b505080610886906111ea565b9050610782565b50825160010361090e5760208301516000906020840151909150856001600160a01b0316876001600160a01b0316846001600160a01b03167fc3d58168c5ae7397731d063d5bbf3d657854427343f4c083240f7aacaa2d0f6285856040516108ff929190918252602082015260400190565b60405180910390a45050610574565b836001600160a01b0316856001600160a01b0316826001600160a01b03167f4a39dc06d4c0dbc64b70af90fd698a233a518aa5d07e595d983b8c0526c8f7fb868660405161095d929190611321565b60405180910390a45050505050565b6001600160a01b0384163b1561034b5760405163f23a6e6160e01b81526001600160a01b0385169063f23a6e61906109b0908990899088908890889060040161134f565b6020604051808303816000875af19250505080156109eb575060408051601f3d908101601f191682019092526109e891810190611394565b60015b610a54573d808015610a19576040519150601f19603f3d011682016040523d82523d6000602084013e610a1e565b606091505b508051600003610a4c57604051632bfa23e760e11b81526001600160a01b0386166004820152602401610335565b805181602001fd5b6001600160e01b0319811663f23a6e6160e01b146106f357604051632bfa23e760e11b81526001600160a01b0386166004820152602401610335565b6001600160a01b0384163b1561034b5760405163bc197c8160e01b81526001600160a01b0385169063bc197c8190610ad490899089908890889088906004016113b1565b6020604051808303816000875af1925050508015610b0f575060408051601f3d908101601f19168201909252610b0c91810190611394565b60015b610b3d573d808015610a19576040519150601f19603f3d011682016040523d82523d6000602084013e610a1e565b6001600160e01b0319811663bc197c8160e01b146106f357604051632bfa23e760e11b81526001600160a01b0386166004820152602401610335565b80356001600160a01b0381168114610b9057600080fd5b919050565b60008060408385031215610ba857600080fd5b610bb183610b79565b946020939093013593505050565b6001600160e01b03198116811461023e57600080fd5b600060208284031215610be757600080fd5b8135610bf281610bbf565b9392505050565b634e487b7160e01b600052604160045260246000fd5b604051601f8201601f1916810167ffffffffffffffff81118282101715610c3857610c38610bf9565b604052919050565b600067ffffffffffffffff831115610c5a57610c5a610bf9565b610c6d601f8401601f1916602001610c0f565b9050828152838383011115610c8157600080fd5b828260208301376000602084830101529392505050565b600060208284031215610caa57600080fd5b813567ffffffffffffffff811115610cc157600080fd5b8201601f81018413610cd257600080fd5b610ce184823560208401610c40565b949350505050565b600060208284031215610cfb57600080fd5b5035919050565b6000815180845260005b81811015610d2857602081850181015186830182015201610d0c565b506000602082860101526020601f19601f83011685010191505092915050565b602081526000610bf26020830184610d02565b600067ffffffffffffffff821115610d7557610d75610bf9565b5060051b60200190565b600082601f830112610d9057600080fd5b81356020610da5610da083610d5b565b610c0f565b82815260059290921b84018101918181019086841115610dc457600080fd5b8286015b84811015610ddf5780358352918301918301610dc8565b509695505050505050565b600082601f830112610dfb57600080fd5b610bf283833560208501610c40565b60008060008060808587031215610e2057600080fd5b610e2985610b79565b9350602085013567ffffffffffffffff80821115610e4657600080fd5b610e5288838901610d7f565b94506040870135915080821115610e6857600080fd5b610e7488838901610d7f565b93506060870135915080821115610e8a57600080fd5b50610e9787828801610dea565b91505092959194509250565b600080600080600060a08688031215610ebb57600080fd5b610ec486610b79565b9450610ed260208701610b79565b9350604086013567ffffffffffffffff80821115610eef57600080fd5b610efb89838a01610d7f565b94506060880135915080821115610f1157600080fd5b610f1d89838a01610d7f565b93506080880135915080821115610f3357600080fd5b50610f4088828901610dea565b9150509295509295909350565b60008060408385031215610f6057600080fd5b823567ffffffffffffffff80821115610f7857600080fd5b818501915085601f830112610f8c57600080fd5b81356020610f9c610da083610d5b565b82815260059290921b84018101918181019089841115610fbb57600080fd5b948201945b83861015610fe057610fd186610b79565b82529482019490820190610fc0565b96505086013592505080821115610ff657600080fd5b5061100385828601610d7f565b9150509250929050565b600081518084526020808501945080840160005b8381101561103d57815187529582019590820190600101611021565b509495945050505050565b602081526000610bf2602083018461100d565b6000806000806080858703121561107157600080fd5b61107a85610b79565b93506020850135925060408501359150606085013567ffffffffffffffff8111156110a457600080fd5b610e9787828801610dea565b600080604083850312156110c357600080fd5b6110cc83610b79565b9150602083013580151581146110e157600080fd5b809150509250929050565b600080604083850312156110ff57600080fd5b61110883610b79565b915061111660208401610b79565b90509250929050565b600080600080600060a0868803121561113757600080fd5b61114086610b79565b945061114e60208701610b79565b93506040860135925060608601359150608086013567ffffffffffffffff81111561117857600080fd5b610f4088828901610dea565b600181811c9082168061119857607f821691505b6020821081036111b857634e487b7160e01b600052602260045260246000fd5b50919050565b634e487b7160e01b600052603260045260246000fd5b634e487b7160e01b600052601160045260246000fd5b6000600182016111fc576111fc6111d4565b5060010190565b601f82111561124957600081815260208120601f850160051c8101602086101561122a5750805b601f850160051c820191505b8181101561034b57828155600101611236565b505050565b815167ffffffffffffffff81111561126857611268610bf9565b61127c816112768454611184565b84611203565b602080601f8311600181146112b157600084156112995750858301515b600019600386901b1c1916600185901b17855561034b565b600085815260208120601f198616915b828110156112e0578886015182559484019460019091019084016112c1565b50858210156112fe5787850151600019600388901b60f8161c191681555b5050505050600190811b01905550565b808201808211156101df576101df6111d4565b604081526000611334604083018561100d565b8281036020840152611346818561100d565b95945050505050565b6001600160a01b03868116825285166020820152604081018490526060810183905260a06080820181905260009061138990830184610d02565b979650505050505050565b6000602082840312156113a657600080fd5b8151610bf281610bbf565b6001600160a01b0386811682528516602082015260a0604082018190526000906113dd9083018661100d565b82810360608401526113ef818661100d565b905082810360808401526114038185610d02565b9897505050505050505056fea2646970667358221220d6386ba2024a318873a5e1f95c58420ef33a92a8f9613b0ca5d016dc1c9acc1b64736f6c63430008150033697066733a2f2f626166796265696535736c3278686a756c7a6f6a6d637335676c3365796335657a346c64666d77687534326361736d3737716f3670376c6e376f61",
    "linkReferences": {}
  },
  "methodIdentifiers": {
    "balanceOf(address,uint256)": "00fdd58e",
    "balanceOfBatch(address[],uint256[])": "4e1273f4",
    "isApprovedForAll(address,address)": "e985e9c5",
    "mint(address,uint256,uint256,bytes)": "731133e9",
    "mintBatch(address,uint256[],uint256[],bytes)": "1f7fdffa",
    "safeBatchTransferFrom(address,address,uint256[],uint256[],bytes)": "2eb2c2d6",
    "safeTransferFrom(address,address,uint256,uint256,bytes)": "f242432a",
    "setApprovalForAll(address,bool)": "a22cb465",
    "setURI(string)": "02fe5305",
    "supportsInterface(bytes4)": "01ffc9a7",
    "uri(uint256)": "0e89341c"
  },
  "id": 33
}